:020000020000FC
:060000006EC032C03FC0DB
:1000160050C0000101010202030506090D11161D5B
:10002600242D000001010101010102020202030365
:100036000505060607090B0D0F111316191D2024B9
:10004600282D070707070404040401070305000613
:100056000204FF0FFF0FFF0F1FFF1F1F1FFFFF0FE2
:10006600FFFF839907C091BA54BA8299FECF74BA3A
:1000760071BA1895E3B350A090A88ABE1895C3B27A
:10008600829912C050B2DFB65820C5285C2C509415
:1000960050A29080C920952C982090AAC08AED3055
:1000A60009F43068DFBE1895EC2D50A090A88ABEE2
:1000B6001895CCB0E4FF06C0C7FC02C0EC2D18951D
:1000C600E0E11895DFB65080C520C08AED3009F40E
:1000D6003068E0E1DFBE189500B7026000BF0FE5AB
:1000E6000DBF04E00EBF479A772400EC802E0FE187
:1000F600202E0FEF502E982CFF2420E1E0E1F1E0B6
:1001060080A2008B71922A95D9F7B2E0A0E1E8E4CB
:10011600F0E020E1DDD0A0E2E8E1F0E020E1D8D097
:10012600A0E3E8E2F0E020E2D3D0AA27B1E0E8E5D8
:10013600F0E020E1CDD0F1E0D2E06F2E7FBA7EBABA
:10014600E09A0DB3071569F0002700BD06E800BD6B
:1001560002E00BB900E90AB903E00EBBE09A2DB341
:1001660029B97BBC7ABC79BC78BCB99ABA9A02EA3E
:100176000FBD09E10EBDDEBBE09A2DB377BC26BDEF
:10018600FEBBE09A0DB3071521F00FE005BF8ABE4E
:100196008BBEE0E13327002444241124282D0027B8
:1001A600CC24332444275527BA01CA01DA01112782
:1001B6007894C8B7C2FFFDCFC8BF37FF06C0C0914D
:1001C6001D0108892FE13F770CC007FD12C011976A
:1001D60008F079F42A952AF42FE101FD0F2702FD94
:1001E6000829A0911B01B0911C01C22F00FFC22556
:1001F60018A93A946AF4309016013A9466946E2CD3
:10020600F794E7943863E0FE377C660C6E246694B8
:100216004F1B57093AF440911001509111014F1BA1
:1002260057093F276F1B77093AF4609112017091C5
:1002360013016F1B77093D2701973AF4809114014A
:10024600909115010197C4E03C27A0901701A09456
:10025600A322B0901701CB2DCC0FC295BC22C09122
:100266001801012EC4FF08A0B0FC07C0CA2DC97032
:1002760009F40024C93009F4000CC0911901412E7B
:10028600C4FF48A0B1FC07C0CA2DC27109F44424BA
:10029600C23109F4440CC0911A01112EC4FF18A0F2
:1002A600B2FC07C0CA2DC47209F41124C43209F481
:1002B600110CC42D46944694C4194694C4190C0EC8
:1002C6001C0E8199020C8199120C0ABC18BC71CFC4
:0A02D60005910D932A95E1F70895B4
:00000001FF
